{
  "_format": "hh-sol-artifact-1",
  "contractName": "EventBus",
  "sourceName": "contracts/EventBus.sol",
  "abi": [
    {
      "anonymous": false,
      "inputs": [
        {
          "indexed": true,
          "internalType": "string",
          "name": "uid",
          "type": "string"
        },
        {
          "components": [
            {
              "internalType": "string",
              "name": "uid",
              "type": "string"
            },
            {
              "internalType": "string",
              "name": "id",
              "type": "string"
            },
            {
              "internalType": "string",
              "name": "name",
              "type": "string"
            },
            {
              "internalType": "string",
              "name": "Type",
              "type": "string"
            },
            {
              "internalType": "string",
              "name": "number",
              "type": "string"
            },
            {
              "internalType": "string",
              "name": "hash",
              "type": "string"
            }
          ],
          "indexed": false,
          "internalType": "struct EventBus.ProductData",
          "name": "productData",
          "type": "tuple"
        }
      ],
      "name": "NewProduct",
      "type": "event"
    },
    {
      "anonymous": false,
      "inputs": [
        {
          "indexed": true,
          "internalType": "address",
          "name": "previousOwner",
          "type": "address"
        },
        {
          "indexed": true,
          "internalType": "address",
          "name": "newOwner",
          "type": "address"
        }
      ],
      "name": "OwnershipTransferred",
      "type": "event"
    },
    {
      "anonymous": false,
      "inputs": [
        {
          "indexed": true,
          "internalType": "string",
          "name": "uid",
          "type": "string"
        },
        {
          "components": [
            {
              "internalType": "string",
              "name": "uid",
              "type": "string"
            },
            {
              "internalType": "string",
              "name": "pubKey",
              "type": "string"
            },
            {
              "internalType": "string",
              "name": "algorithm",
              "type": "string"
            }
          ],
          "indexed": false,
          "internalType": "struct EventBus.ProductDetailsRequestData",
          "name": "productDetailsRequestData",
          "type": "tuple"
        }
      ],
      "name": "ProductDetailsRequest",
      "type": "event"
    },
    {
      "inputs": [
        {
          "components": [
            {
              "internalType": "string",
              "name": "uid",
              "type": "string"
            },
            {
              "internalType": "string",
              "name": "id",
              "type": "string"
            },
            {
              "internalType": "string",
              "name": "name",
              "type": "string"
            },
            {
              "internalType": "string",
              "name": "Type",
              "type": "string"
            },
            {
              "internalType": "string",
              "name": "number",
              "type": "string"
            },
            {
              "internalType": "string",
              "name": "hash",
              "type": "string"
            }
          ],
          "internalType": "struct EventBus.ProductData",
          "name": "productData",
          "type": "tuple"
        }
      ],
      "name": "broadcastNewProduct",
      "outputs": [],
      "stateMutability": "nonpayable",
      "type": "function"
    },
    {
      "inputs": [
        {
          "components": [
            {
              "internalType": "string",
              "name": "uid",
              "type": "string"
            },
            {
              "internalType": "string",
              "name": "pubKey",
              "type": "string"
            },
            {
              "internalType": "string",
              "name": "algorithm",
              "type": "string"
            }
          ],
          "internalType": "struct EventBus.ProductDetailsRequestData",
          "name": "productDetailsRequestData",
          "type": "tuple"
        }
      ],
      "name": "broadcastProductDetailsRequest",
      "outputs": [],
      "stateMutability": "nonpayable",
      "type": "function"
    },
    {
      "inputs": [],
      "name": "owner",
      "outputs": [
        {
          "internalType": "address",
          "name": "",
          "type": "address"
        }
      ],
      "stateMutability": "view",
      "type": "function"
    },
    {
      "inputs": [],
      "name": "renounceOwnership",
      "outputs": [],
      "stateMutability": "nonpayable",
      "type": "function"
    },
    {
      "inputs": [
        {
          "internalType": "address",
          "name": "newOwner",
          "type": "address"
        }
      ],
      "name": "transferOwnership",
      "outputs": [],
      "stateMutability": "nonpayable",
      "type": "function"
    }
  ],
  "bytecode": "0x608060405234801561001057600080fd5b5061001a3361001f565b61006f565b600080546001600160a01b038381166001600160a01b0319831681178455604051919092169283917f8be0079c531659141344cd1fd0a4f28419497f9722a3daafe3b4186f6b6457e09190a35050565b6107a48061007e6000396000f3fe608060405234801561001057600080fd5b50600436106100575760003560e01c8063450091a41461005c578063715018a6146100715780638da5cb5b14610079578063f2fde38b14610098578063f43abc7d146100ab575b600080fd5b61006f61006a366004610388565b6100be565b005b61006f610142565b600054604080516001600160a01b039092168252519081900360200190f35b61006f6100a636600461035a565b610178565b61006f6100b93660046104a0565b610213565b6000546001600160a01b031633146100f15760405162461bcd60e51b81526004016100e890610597565b60405180910390fd5b8051604051610100919061057b565b60405180910390207f823bacfb073695b5ed3818939702c114382db5ba07fec8603c65b1a3904b347d8260405161013791906105cc565b60405180910390a250565b6000546001600160a01b0316331461016c5760405162461bcd60e51b81526004016100e890610597565b6101766000610283565b565b6000546001600160a01b031633146101a25760405162461bcd60e51b81526004016100e890610597565b6001600160a01b0381166102075760405162461bcd60e51b815260206004820152602660248201527f4f776e61626c653a206e6577206f776e657220697320746865207a65726f206160448201526564647265737360d01b60648201526084016100e8565b61021081610283565b50565b6000546001600160a01b0316331461023d5760405162461bcd60e51b81526004016100e890610597565b805160405161024c919061057b565b60405180910390207ff5bbc345fd391b1f922e09a173ed4cd711c1eb86b2cadd5625f4ecf1977d897d826040516101379190610684565b600080546001600160a01b038381166001600160a01b0319831681178455604051919092169283917f8be0079c531659141344cd1fd0a4f28419497f9722a3daafe3b4186f6b6457e09190a35050565b600082601f8301126102e3578081fd5b813567ffffffffffffffff808211156102fe576102fe610758565b604051601f8301601f19908116603f0116810190828211818310171561032657610326610758565b8160405283815286602085880101111561033e578485fd5b8360208701602083013792830160200193909352509392505050565b60006020828403121561036b578081fd5b81356001600160a01b0381168114610381578182fd5b9392505050565b600060208284031215610399578081fd5b813567ffffffffffffffff808211156103b0578283fd5b9083019060c082860312156103c3578283fd5b6103cb6106dc565b8235828111156103d9578485fd5b6103e5878286016102d3565b8252506020830135828111156103f9578485fd5b610405878286016102d3565b60208301525060408301358281111561041c578485fd5b610428878286016102d3565b60408301525060608301358281111561043f578485fd5b61044b878286016102d3565b606083015250608083013582811115610462578485fd5b61046e878286016102d3565b60808301525060a083013582811115610485578485fd5b610491878286016102d3565b60a08301525095945050505050565b6000602082840312156104b1578081fd5b813567ffffffffffffffff808211156104c8578283fd5b90830190606082860312156104db578283fd5b6104e3610705565b8235828111156104f1578485fd5b6104fd878286016102d3565b825250602083013582811115610511578485fd5b61051d878286016102d3565b602083015250604083013582811115610534578485fd5b610540878286016102d3565b60408301525095945050505050565b60008151808452610567816020860160208601610728565b601f01601f19169290920160200192915050565b6000825161058d818460208701610728565b9190910192915050565b6020808252818101527f4f776e61626c653a2063616c6c6572206973206e6f7420746865206f776e6572604082015260600190565b602081526000825160c060208401526105e860e084018261054f565b90506020840151601f1980858403016040860152610606838361054f565b92506040860151915080858403016060860152610623838361054f565b92506060860151915080858403016080860152610640838361054f565b925060808601519150808584030160a086015261065d838361054f565b925060a08601519150808584030160c08601525061067b828261054f565b95945050505050565b6020815260008251606060208401526106a0608084018261054f565b90506020840151601f19808584030160408601526106be838361054f565b925060408601519150808584030160608601525061067b828261054f565b60405160c0810167ffffffffffffffff811182821017156106ff576106ff610758565b60405290565b6040516060810167ffffffffffffffff811182821017156106ff576106ff610758565b60005b8381101561074357818101518382015260200161072b565b83811115610752576000848401525b50505050565b634e487b7160e01b600052604160045260246000fdfea264697066735822122039967b764df93f178940cbcca018fe2605c42ad5f76989de9418b7f424bf484d64736f6c63430008040033",
  "linkReferences": {},
  "deployedLinkReferences": {}
}