{
  "_format": "hh-sol-artifact-1",
  "contractName": "EventBus",
  "sourceName": "contracts/EventBus.sol",
  "abi": [
    {
      "anonymous": false,
      "inputs": [
        {
          "components": [
            {
              "internalType": "string",
              "name": "uid",
              "type": "string"
            },
            {
              "internalType": "string",
              "name": "id",
              "type": "string"
            },
            {
              "internalType": "string",
              "name": "name",
              "type": "string"
            },
            {
              "internalType": "string",
              "name": "Type",
              "type": "string"
            },
            {
              "internalType": "string",
              "name": "number",
              "type": "string"
            },
            {
              "internalType": "string",
              "name": "hash",
              "type": "string"
            }
          ],
          "indexed": false,
          "internalType": "struct EventBus.Product",
          "name": "product",
          "type": "tuple"
        }
      ],
      "name": "NewProduct",
      "type": "event"
    },
    {
      "anonymous": false,
      "inputs": [
        {
          "indexed": true,
          "internalType": "address",
          "name": "previousOwner",
          "type": "address"
        },
        {
          "indexed": true,
          "internalType": "address",
          "name": "newOwner",
          "type": "address"
        }
      ],
      "name": "OwnershipTransferred",
      "type": "event"
    },
    {
      "anonymous": false,
      "inputs": [
        {
          "indexed": false,
          "internalType": "string",
          "name": "uid",
          "type": "string"
        },
        {
          "indexed": false,
          "internalType": "string",
          "name": "pubKey",
          "type": "string"
        },
        {
          "indexed": false,
          "internalType": "string",
          "name": "algorithm",
          "type": "string"
        }
      ],
      "name": "ProductDetailsRequest",
      "type": "event"
    },
    {
      "inputs": [
        {
          "components": [
            {
              "internalType": "string",
              "name": "uid",
              "type": "string"
            },
            {
              "internalType": "string",
              "name": "id",
              "type": "string"
            },
            {
              "internalType": "string",
              "name": "name",
              "type": "string"
            },
            {
              "internalType": "string",
              "name": "Type",
              "type": "string"
            },
            {
              "internalType": "string",
              "name": "number",
              "type": "string"
            },
            {
              "internalType": "string",
              "name": "hash",
              "type": "string"
            }
          ],
          "internalType": "struct EventBus.Product",
          "name": "product",
          "type": "tuple"
        }
      ],
      "name": "broadcastNewProduct",
      "outputs": [],
      "stateMutability": "nonpayable",
      "type": "function"
    },
    {
      "inputs": [
        {
          "internalType": "string",
          "name": "uid",
          "type": "string"
        },
        {
          "internalType": "string",
          "name": "pubKey",
          "type": "string"
        },
        {
          "internalType": "string",
          "name": "algorithm",
          "type": "string"
        }
      ],
      "name": "broadcastProductDetailsRequest",
      "outputs": [],
      "stateMutability": "nonpayable",
      "type": "function"
    },
    {
      "inputs": [],
      "name": "owner",
      "outputs": [
        {
          "internalType": "address",
          "name": "",
          "type": "address"
        }
      ],
      "stateMutability": "view",
      "type": "function"
    },
    {
      "inputs": [],
      "name": "renounceOwnership",
      "outputs": [],
      "stateMutability": "nonpayable",
      "type": "function"
    },
    {
      "inputs": [
        {
          "internalType": "address",
          "name": "newOwner",
          "type": "address"
        }
      ],
      "name": "transferOwnership",
      "outputs": [],
      "stateMutability": "nonpayable",
      "type": "function"
    }
  ],
  "bytecode": "0x608060405234801561001057600080fd5b5061001a3361001f565b61006f565b600080546001600160a01b038381166001600160a01b0319831681178455604051919092169283917f8be0079c531659141344cd1fd0a4f28419497f9722a3daafe3b4186f6b6457e09190a35050565b6106f78061007e6000396000f3fe608060405234801561001057600080fd5b50600436106100575760003560e01c80633c4efa751461005c578063450091a414610071578063715018a6146100845780638da5cb5b1461008c578063f2fde38b146100ab575b600080fd5b61006f61006a36600461036b565b6100be565b005b61006f61007f3660046103ef565b610131565b61006f610195565b600054604080516001600160a01b039092168252519081900360200190f35b61006f6100b936600461033d565b6101cb565b6000546001600160a01b031633146100f15760405162461bcd60e51b81526004016100e890610595565b60405180910390fd5b7faa2a106b7d36155a60d049816a4a6b9b70563a9847ab42c1ace5814664d2ae6183838360405161012493929190610552565b60405180910390a1505050565b6000546001600160a01b0316331461015b5760405162461bcd60e51b81526004016100e890610595565b7f87ca81652816b80c03c5d9a55988bfafa17b63a3556f313f0eb80d0554ddfb4a8160405161018a91906105ca565b60405180910390a150565b6000546001600160a01b031633146101bf5760405162461bcd60e51b81526004016100e890610595565b6101c96000610266565b565b6000546001600160a01b031633146101f55760405162461bcd60e51b81526004016100e890610595565b6001600160a01b03811661025a5760405162461bcd60e51b815260206004820152602660248201527f4f776e61626c653a206e6577206f776e657220697320746865207a65726f206160448201526564647265737360d01b60648201526084016100e8565b61026381610266565b50565b600080546001600160a01b038381166001600160a01b0319831681178455604051919092169283917f8be0079c531659141344cd1fd0a4f28419497f9722a3daafe3b4186f6b6457e09190a35050565b600082601f8301126102c6578081fd5b813567ffffffffffffffff808211156102e1576102e16106ab565b604051601f8301601f19908116603f01168101908282118183101715610309576103096106ab565b81604052838152866020858801011115610321578485fd5b8360208701602083013792830160200193909352509392505050565b60006020828403121561034e578081fd5b81356001600160a01b0381168114610364578182fd5b9392505050565b60008060006060848603121561037f578182fd5b833567ffffffffffffffff80821115610396578384fd5b6103a2878388016102b6565b945060208601359150808211156103b7578384fd5b6103c3878388016102b6565b935060408601359150808211156103d8578283fd5b506103e5868287016102b6565b9150509250925092565b600060208284031215610400578081fd5b813567ffffffffffffffff80821115610417578283fd5b9083019060c0828603121561042a578283fd5b610432610682565b823582811115610440578485fd5b61044c878286016102b6565b825250602083013582811115610460578485fd5b61046c878286016102b6565b602083015250604083013582811115610483578485fd5b61048f878286016102b6565b6040830152506060830135828111156104a6578485fd5b6104b2878286016102b6565b6060830152506080830135828111156104c9578485fd5b6104d5878286016102b6565b60808301525060a0830135828111156104ec578485fd5b6104f8878286016102b6565b60a08301525095945050505050565b60008151808452815b8181101561052c57602081850181015186830182015201610510565b8181111561053d5782602083870101525b50601f01601f19169290920160200192915050565b6060815260006105656060830186610507565b82810360208401526105778186610507565b9050828103604084015261058b8185610507565b9695505050505050565b6020808252818101527f4f776e61626c653a2063616c6c6572206973206e6f7420746865206f776e6572604082015260600190565b602081526000825160c060208401526105e660e0840182610507565b90506020840151601f19808584030160408601526106048383610507565b925060408601519150808584030160608601526106218383610507565b9250606086015191508085840301608086015261063e8383610507565b925060808601519150808584030160a086015261065b8383610507565b925060a08601519150808584030160c0860152506106798282610507565b95945050505050565b60405160c0810167ffffffffffffffff811182821017156106a5576106a56106ab565b60405290565b634e487b7160e01b600052604160045260246000fdfea2646970667358221220f0c8f45df568945565ca3f4531746d8cb5fb127af95a8ba23cdb1fe4d78f889a64736f6c63430008040033",
  "linkReferences": {},
  "deployedLinkReferences": {}
}